{
  "transactions": [
    {
      "hash": "0x608bc82ba5ebf1b78b3bb2ab970328982cb0af120548839f5d5fea5f3c01dcb3",
      "transactionType": "CALL",
      "contractName": null,
      "contractAddress": "0x13358ac0028f488d8832b901b34cb3268402b080",
      "function": "createProvider(string,string,string)",
      "arguments": [
        "0x30dd72fae0c3e8b7395a2e966339c6ce399e4b2fadbd68f27eb120aa0b9ca28e",
        "followers_count",
        "screen_name"
      ],
      "transaction": {
        "from": "0xf39fd6e51aad88f6f4ce6ab8827279cfffb92266",
        "to": "0x13358ac0028f488d8832b901b34cb3268402b080",
        "gas": "0x16b65",
        "value": "0x0",
        "input": "0x16831435000000000000000000000000000000000000000000000000000000000000006000000000000000000000000000000000000000000000000000000000000000e000000000000000000000000000000000000000000000000000000000000001200000000000000000000000000000000000000000000000000000000000000042307833306464373266616530633365386237333935613265393636333339633663653339396534623266616462643638663237656231323061613062396361323865000000000000000000000000000000000000000000000000000000000000000000000000000000000000000000000000000000000000000000000000000f666f6c6c6f776572735f636f756e740000000000000000000000000000000000000000000000000000000000000000000000000000000000000000000000000b73637265656e5f6e616d65000000000000000000000000000000000000000000",
        "nonce": "0x2151",
        "chainId": "0x14a34"
      },
      "additionalContracts": [],
      "isFixedGasLimit": false
    }
  ],
  "receipts": [
    {
      "status": "0x1",
      "cumulativeGasUsed": "0x11140",
      "logs": [],
      "logsBloom": "0x00000000000000000000000000000000000000000000000000000000000000000000000000000000000000000000000000000000000000000000000000000000000000000000000000000000000000000000000000000000000000000000000000000000000000000000000000000000000000000000000000000000000000000000000000000000000000000000000000000000000000000000000000000000000000000000000000000000000000000000000000000000000000000000000000000000000000000000000000000000000000000000000000000000000000000000000000000000000000000000000000000000000000000000000000000000",
      "type": "0x2",
      "transactionHash": "0x608bc82ba5ebf1b78b3bb2ab970328982cb0af120548839f5d5fea5f3c01dcb3",
      "transactionIndex": "0x0",
      "blockHash": "0x9ebf8682566e37191342b7bb259abe890eb2c3be94a76d0f61b6d716008b48c1",
      "blockNumber": "0x12dc6f3",
      "gasUsed": "0x11140",
      "effectiveGasPrice": "0x18721",
      "blobGasPrice": "0x1",
      "from": "0xf39fd6e51aad88f6f4ce6ab8827279cfffb92266",
      "to": "0x13358ac0028f488d8832b901b34cb3268402b080",
      "contractAddress": null,
      "root": "0x0000000000000000000000000000000000000000000000000000000000000000"
    }
  ],
  "libraries": [],
  "pending": [],
  "returns": {},
  "timestamp": 1735922923,
  "chain": 84532,
  "commit": null
}