{
  "transactions": [
    {
      "hash": "0xaddb30c2840204efcf0b79ba5e7c01d08bcec9eb7b662b634ebc23ccf2de8b2d",
      "transactionType": "CALL",
      "contractName": null,
      "contractAddress": "0xef844a34f3163de7bcee4f72250cf7881b605df8",
      "function": "createProvider(string,string,string)",
      "arguments": [
        "0x30dd72fae0c3e8b7395a2e966339c6ce399e4b2fadbd68f27eb120aa0b9ca28e",
        "followers_count",
        "screen_name"
      ],
      "transaction": {
        "from": "0xf39fd6e51aad88f6f4ce6ab8827279cfffb92266",
        "to": "0xef844a34f3163de7bcee4f72250cf7881b605df8",
        "gas": "0xaf19",
        "value": "0x0",
        "input": "0x16831435000000000000000000000000000000000000000000000000000000000000006000000000000000000000000000000000000000000000000000000000000000e000000000000000000000000000000000000000000000000000000000000001200000000000000000000000000000000000000000000000000000000000000042307833306464373266616530633365386237333935613265393636333339633663653339396534623266616462643638663237656231323061613062396361323865000000000000000000000000000000000000000000000000000000000000000000000000000000000000000000000000000000000000000000000000000f666f6c6c6f776572735f636f756e740000000000000000000000000000000000000000000000000000000000000000000000000000000000000000000000000b73637265656e5f6e616d65000000000000000000000000000000000000000000",
        "nonce": "0x2159",
        "chainId": "0x14a34"
      },
      "additionalContracts": [],
      "isFixedGasLimit": false
    }
  ],
  "receipts": [
    {
      "status": "0x1",
      "cumulativeGasUsed": "0x875a",
      "logs": [],
      "logsBloom": "0x00000000000000000000000000000000000000000000000000000000000000000000000000000000000000000000000000000000000000000000000000000000000000000000000000000000000000000000000000000000000000000000000000000000000000000000000000000000000000000000000000000000000000000000000000000000000000000000000000000000000000000000000000000000000000000000000000000000000000000000000000000000000000000000000000000000000000000000000000000000000000000000000000000000000000000000000000000000000000000000000000000000000000000000000000000000",
      "type": "0x2",
      "transactionHash": "0xaddb30c2840204efcf0b79ba5e7c01d08bcec9eb7b662b634ebc23ccf2de8b2d",
      "transactionIndex": "0x0",
      "blockHash": "0x55dc311cdf4947f3776ebcbb1121c7591ade41877e8ee790e7a696c94393c869",
      "blockNumber": "0x12dc6fa",
      "gasUsed": "0x875a",
      "effectiveGasPrice": "0x186d6",
      "blobGasPrice": "0x1",
      "from": "0xf39fd6e51aad88f6f4ce6ab8827279cfffb92266",
      "to": "0xef844a34f3163de7bcee4f72250cf7881b605df8",
      "contractAddress": null,
      "root": "0x0000000000000000000000000000000000000000000000000000000000000000"
    }
  ],
  "libraries": [],
  "pending": [],
  "returns": {},
  "timestamp": 1735927843,
  "chain": 84532,
  "commit": null
}