{
  "transactions": [
    {
      "hash": "0x228deb32d1379e0ae84e115178606f35bdb294dac4d5711e374b0c28abc3780f",
      "transactionType": "CALL",
      "contractName": null,
      "contractAddress": "0xef844a34f3163de7bcee4f72250cf7881b605df8",
      "function": "createProvider(string,string,string)",
      "arguments": [
        "0x30dd72fae0c3e8b7395a2e966339c6ce399e4b2fadbd68f27eb120aa0b9ca28e",
        "followers_count",
        "screen_name"
      ],
      "transaction": {
        "from": "0xf39fd6e51aad88f6f4ce6ab8827279cfffb92266",
        "to": "0xef844a34f3163de7bcee4f72250cf7881b605df8",
        "gas": "0x16b65",
        "value": "0x0",
        "input": "0x16831435000000000000000000000000000000000000000000000000000000000000006000000000000000000000000000000000000000000000000000000000000000e000000000000000000000000000000000000000000000000000000000000001200000000000000000000000000000000000000000000000000000000000000042307833306464373266616530633365386237333935613265393636333339633663653339396534623266616462643638663237656231323061613062396361323865000000000000000000000000000000000000000000000000000000000000000000000000000000000000000000000000000000000000000000000000000f666f6c6c6f776572735f636f756e740000000000000000000000000000000000000000000000000000000000000000000000000000000000000000000000000b73637265656e5f6e616d65000000000000000000000000000000000000000000",
        "nonce": "0x2158",
        "chainId": "0x14a34"
      },
      "additionalContracts": [],
      "isFixedGasLimit": false
    }
  ],
  "receipts": [
    {
      "status": "0x1",
      "cumulativeGasUsed": "0x11140",
      "logs": [],
      "logsBloom": "0x00000000000000000000000000000000000000000000000000000000000000000000000000000000000000000000000000000000000000000000000000000000000000000000000000000000000000000000000000000000000000000000000000000000000000000000000000000000000000000000000000000000000000000000000000000000000000000000000000000000000000000000000000000000000000000000000000000000000000000000000000000000000000000000000000000000000000000000000000000000000000000000000000000000000000000000000000000000000000000000000000000000000000000000000000000000",
      "type": "0x2",
      "transactionHash": "0x228deb32d1379e0ae84e115178606f35bdb294dac4d5711e374b0c28abc3780f",
      "transactionIndex": "0x0",
      "blockHash": "0x02eca57f287e9dfbdf37c900c2d7f48ceae3e9de2511826487361c5d51d047fd",
      "blockNumber": "0x12dc6f9",
      "gasUsed": "0x11140",
      "effectiveGasPrice": "0x186dd",
      "blobGasPrice": "0x1",
      "from": "0xf39fd6e51aad88f6f4ce6ab8827279cfffb92266",
      "to": "0xef844a34f3163de7bcee4f72250cf7881b605df8",
      "contractAddress": null,
      "root": "0x0000000000000000000000000000000000000000000000000000000000000000"
    }
  ],
  "libraries": [],
  "pending": [],
  "returns": {},
  "timestamp": 1735927778,
  "chain": 84532,
  "commit": null
}