{
  "transactions": [
    {
      "hash": "0x8613b63defb1d2ed131f4e19142f8666f40bf8c38938977ad70779b6a8d2c10a",
      "transactionType": "CALL",
      "contractName": null,
      "contractAddress": "0xa39e6c830c1864621abbed1a04f5c9d6aec56e18",
      "function": "split(uint256)",
      "arguments": [
        "2"
      ],
      "transaction": {
        "from": "0xf39fd6e51aad88f6f4ce6ab8827279cfffb92266",
        "to": "0xa39e6c830c1864621abbed1a04f5c9d6aec56e18",
        "gas": "0xa7dce",
        "value": "0x16345785d8a0000",
        "input": "0xdbceb0050000000000000000000000000000000000000000000000000000000000000002",
        "nonce": "0x216c",
        "chainId": "0x14a34"
      },
      "additionalContracts": [],
      "isFixedGasLimit": false
    }
  ],
  "receipts": [
    {
      "status": "0x1",
      "cumulativeGasUsed": "0x76e13",
      "logs": [
        {
          "address": "0xa39e6c830c1864621abbed1a04f5c9d6aec56e18",
          "topics": [
            "0x4a39dc06d4c0dbc64b70af90fd698a233a518aa5d07e595d983b8c0526c8f7fb",
            "0x000000000000000000000000f39fd6e51aad88f6f4ce6ab8827279cfffb92266",
            "0x0000000000000000000000000000000000000000000000000000000000000000",
            "0x000000000000000000000000f39fd6e51aad88f6f4ce6ab8827279cfffb92266"
          ],
          "data": "0x000000000000000000000000000000000000000000000000000000000000004000000000000000000000000000000000000000000000000000000000000002a000000000000000000000000000000000000000000000000000000000000000120000000000000000000000000000000200000000000000000000000000000001000000000000000000000000000000020000000000000000000000000000000000000000000000000000000000000002000000000000000000000000000000030000000000000000000000000000000200000000000000000000000000000002000000000000000000000000000000020000000000000000000000000000000500000000000000000000000000000002000000000000000000000000000000040000000000000000000000000000000200000000000000000000000000000007000000000000000000000000000000020000000000000000000000000000000600000000000000000000000000000002000000000000000000000000000000090000000000000000000000000000000200000000000000000000000000000008000000000000000000000000000000020000000000000000000000000000000b000000000000000000000000000000020000000000000000000000000000000a000000000000000000000000000000020000000000000000000000000000000d000000000000000000000000000000020000000000000000000000000000000c000000000000000000000000000000020000000000000000000000000000000f000000000000000000000000000000020000000000000000000000000000000e000000000000000000000000000000020000000000000000000000000000001100000000000000000000000000000002000000000000000000000000000000100000000000000000000000000000000000000000000000000000000000000012000000000000000000000000000000000000000000000000016345785d8a0000000000000000000000000000000000000000000000000000016345785d8a0000000000000000000000000000000000000000000000000000016345785d8a0000000000000000000000000000000000000000000000000000016345785d8a0000000000000000000000000000000000000000000000000000016345785d8a0000000000000000000000000000000000000000000000000000016345785d8a0000000000000000000000000000000000000000000000000000016345785d8a0000000000000000000000000000000000000000000000000000016345785d8a0000000000000000000000000000000000000000000000000000016345785d8a0000000000000000000000000000000000000000000000000000016345785d8a0000000000000000000000000000000000000000000000000000016345785d8a0000000000000000000000000000000000000000000000000000016345785d8a0000000000000000000000000000000000000000000000000000016345785d8a0000000000000000000000000000000000000000000000000000016345785d8a0000000000000000000000000000000000000000000000000000016345785d8a0000000000000000000000000000000000000000000000000000016345785d8a0000000000000000000000000000000000000000000000000000016345785d8a0000000000000000000000000000000000000000000000000000016345785d8a0000",
          "blockHash": "0xd19e7ed837860ec270ea283aa9c57811e55f001b743757d01694895bb198dcb5",
          "blockNumber": "0x12dc708",
          "blockTimestamp": "0x67793c95",
          "transactionHash": "0x8613b63defb1d2ed131f4e19142f8666f40bf8c38938977ad70779b6a8d2c10a",
          "transactionIndex": "0x0",
          "logIndex": "0x0",
          "removed": false
        }
      ],
      "logsBloom": "0x00000000000000000000000000000000000000000000000000000000000000000000000000000000000000000000000008000000000000000000000000000000000000000000000000000000000000000000000000000000000000000000000000000000020000000000000100000800000000000800000000008000000000000000000000000400000000000000000000000000000000000000000000000000000000000000000000000000000000000000000000000000000000000000000000000000000000200000000000000000000400002000000000000000000020000000000000000000000000000000000000000000000000000000000002000000",
      "type": "0x2",
      "transactionHash": "0x8613b63defb1d2ed131f4e19142f8666f40bf8c38938977ad70779b6a8d2c10a",
      "transactionIndex": "0x0",
      "blockHash": "0xd19e7ed837860ec270ea283aa9c57811e55f001b743757d01694895bb198dcb5",
      "blockNumber": "0x12dc708",
      "gasUsed": "0x76e13",
      "effectiveGasPrice": "0x186ad",
      "blobGasPrice": "0x1",
      "from": "0xf39fd6e51aad88f6f4ce6ab8827279cfffb92266",
      "to": "0xa39e6c830c1864621abbed1a04f5c9d6aec56e18",
      "contractAddress": null,
      "root": "0x0000000000000000000000000000000000000000000000000000000000000000"
    }
  ],
  "libraries": [],
  "pending": [],
  "returns": {},
  "timestamp": 1735998640,
  "chain": 84532,
  "commit": null
}