{
  "transactions": [
    {
      "hash": "0x4e61a8b55e87d1d650ef4766ccb4454a00bffc6e1de5bb2d2dd0ee1031e33731",
      "transactionType": "CALL",
      "contractName": null,
      "contractAddress": "0x51a3063228f351481408cfead5c865122a88a0b5",
      "function": "split(uint256)",
      "arguments": [
        "1"
      ],
      "transaction": {
        "from": "0xf39fd6e51aad88f6f4ce6ab8827279cfffb92266",
        "to": "0x51a3063228f351481408cfead5c865122a88a0b5",
        "gas": "0xaeab0",
        "value": "0x16345785d8a0000",
        "input": "0xdbceb0050000000000000000000000000000000000000000000000000000000000000001",
        "nonce": "0x2173",
        "chainId": "0x14a34"
      },
      "additionalContracts": [],
      "isFixedGasLimit": false
    }
  ],
  "receipts": [
    {
      "status": "0x1",
      "cumulativeGasUsed": "0x82e67",
      "logs": [
        {
          "address": "0x51a3063228f351481408cfead5c865122a88a0b5",
          "topics": [
            "0x4a39dc06d4c0dbc64b70af90fd698a233a518aa5d07e595d983b8c0526c8f7fb",
            "0x000000000000000000000000f39fd6e51aad88f6f4ce6ab8827279cfffb92266",
            "0x0000000000000000000000000000000000000000000000000000000000000000",
            "0x000000000000000000000000f39fd6e51aad88f6f4ce6ab8827279cfffb92266"
          ],
          "data": "0x000000000000000000000000000000000000000000000000000000000000004000000000000000000000000000000000000000000000000000000000000002e000000000000000000000000000000000000000000000000000000000000000140000000000000000000000000000000100000000000000000000000000000001000000000000000000000000000000010000000000000000000000000000000000000000000000000000000000000001000000000000000000000000000000030000000000000000000000000000000100000000000000000000000000000002000000000000000000000000000000010000000000000000000000000000000500000000000000000000000000000001000000000000000000000000000000040000000000000000000000000000000100000000000000000000000000000007000000000000000000000000000000010000000000000000000000000000000600000000000000000000000000000001000000000000000000000000000000090000000000000000000000000000000100000000000000000000000000000008000000000000000000000000000000010000000000000000000000000000000b000000000000000000000000000000010000000000000000000000000000000a000000000000000000000000000000010000000000000000000000000000000d000000000000000000000000000000010000000000000000000000000000000c000000000000000000000000000000010000000000000000000000000000000f000000000000000000000000000000010000000000000000000000000000000e00000000000000000000000000000001000000000000000000000000000000110000000000000000000000000000000100000000000000000000000000000010000000000000000000000000000000010000000000000000000000000000001300000000000000000000000000000001000000000000000000000000000000120000000000000000000000000000000000000000000000000000000000000014000000000000000000000000000000000000000000000000016345785d8a0000000000000000000000000000000000000000000000000000016345785d8a0000000000000000000000000000000000000000000000000000016345785d8a0000000000000000000000000000000000000000000000000000016345785d8a0000000000000000000000000000000000000000000000000000016345785d8a0000000000000000000000000000000000000000000000000000016345785d8a0000000000000000000000000000000000000000000000000000016345785d8a0000000000000000000000000000000000000000000000000000016345785d8a0000000000000000000000000000000000000000000000000000016345785d8a0000000000000000000000000000000000000000000000000000016345785d8a0000000000000000000000000000000000000000000000000000016345785d8a0000000000000000000000000000000000000000000000000000016345785d8a0000000000000000000000000000000000000000000000000000016345785d8a0000000000000000000000000000000000000000000000000000016345785d8a0000000000000000000000000000000000000000000000000000016345785d8a0000000000000000000000000000000000000000000000000000016345785d8a0000000000000000000000000000000000000000000000000000016345785d8a0000000000000000000000000000000000000000000000000000016345785d8a0000000000000000000000000000000000000000000000000000016345785d8a0000000000000000000000000000000000000000000000000000016345785d8a0000",
          "blockHash": "0x2a4419ac79698d5c18d5a2dca4a121df011bb1ba7aed1744ac017587aeece704",
          "blockNumber": "0x12dc70e",
          "blockTimestamp": "0x67794307",
          "transactionHash": "0x4e61a8b55e87d1d650ef4766ccb4454a00bffc6e1de5bb2d2dd0ee1031e33731",
          "transactionIndex": "0x0",
          "logIndex": "0x0",
          "removed": false
        }
      ],
      "logsBloom": "0x00000000000000000000000000000000000000000000000000000000000000000000000000000000000000000000000000000000000000000200000000000000000000000000000000000000000000000000000000000000000000000000000000000000020000000400000100000800000000000800000000000000000010000000000000000000000000000000000000000000000000000000000000000000000000000000000000000000000000000000000000000000000000000000000000000000000000200000000000000000000400002000000000000000000020000000000000000000000000000000000000000000000000000000000002000000",
      "type": "0x2",
      "transactionHash": "0x4e61a8b55e87d1d650ef4766ccb4454a00bffc6e1de5bb2d2dd0ee1031e33731",
      "transactionIndex": "0x0",
      "blockHash": "0x2a4419ac79698d5c18d5a2dca4a121df011bb1ba7aed1744ac017587aeece704",
      "blockNumber": "0x12dc70e",
      "gasUsed": "0x82e67",
      "effectiveGasPrice": "0x186a8",
      "blobGasPrice": "0x1",
      "from": "0xf39fd6e51aad88f6f4ce6ab8827279cfffb92266",
      "to": "0x51a3063228f351481408cfead5c865122a88a0b5",
      "contractAddress": null,
      "root": "0x0000000000000000000000000000000000000000000000000000000000000000"
    }
  ],
  "libraries": [],
  "pending": [],
  "returns": {},
  "timestamp": 1736000290,
  "chain": 84532,
  "commit": null
}